:100000000C9478010C94A9010C94A9010C94A901F9
:100010000C94A9010C94A9010C94A9010C94A901B8
:100020000C94A9010C94A9010C94A9010C94A901A8
:100030000C94A9010C94A9010C94A9010C94A90198
:100040000C94A9010C94A9010C94A9010C94A90188
:100050000C94A9010C94A9010C94A9010C945D08BD
:100060000C94A9010C9427080C94FD070C94A90189
:100070000C94A9010C94A9010C94A9010C94A90158
:100080000C94CB090C94A9010C94A9010C94A9011E
:100090000C94A9010C94A9010C94A9010C94A70833
:1000A0000C94A9010C94A9010C94A9010C94A90128
:1000B0000C94A9010C94A9010C94A9010C94A90118
:1000C0000C94A9010C94A9010C94A9010C94A90108
:1000D0000C94A9010C94A9010C94A9010C94A901F8
:1000E0000C94A90108000000BE922449123EABAA5C
:1000F000AA2ABECDCCCC4C3E00000080BEABAAAA42
:10010000AA3E00000000BF000000803F0000000089
:1001100000084178D3BB4387D1133D190E3CC3BDC2
:100120004282AD2B3E68EC8276BED98FE1A93E4C6F
:1001300080EFFFBE01C4FF7F3F00000000000C9471
:100140008F040C94E1010C9441030C944E030C9425
:100150004A040C943D030C9474030C94B7010C9462
:1001600078030C945C030C94AB010C9458030C942E
:1001700045030C946E030C9431020C9473040C949C
:1001800066030C943F020C946C040C947E040C9453
:10019000D0060C9452030C9448030C9438050C942C
:1001A00060030C941D020C9473030C94C4020C9411
:1001B00077020C94570A0C9439030C946A030C943C
:1001C0000E020C9449040C9459040C94330300005F
:1001D0002100240027002A002D00300033000101F7
:1001E0000000040107010A01000022002500280088
:1001F0002B002E003100340002010000050108012F
:100200000B01000020002300260029002C002F00F5
:100210003200000100000301060109010505050582
:10022000070508080808020202020A0A080804046E
:10023000040401010101010101010303030303039C
:100240000303040707070C0C0C0C0C0C0C0C02022B
:10025000020206060606060606060B0B0B0B0B0B28
:100260000B0B0102102020080810204010204080B5
:10027000020102010804020101020408102040806A
:1002800080402010080402018004020180402010F8
:100290000804020108040201010204081020408041
:1002A000010204081020408000000A0B02090C0D16
:1002B0000E08070304010000000000000000000019
:1002C000000000000000000000000000000000002E
:1002D00000000000121110000000000000000000EB
:1002E0000000000000000000000000000000570AAD
:1002F00011241FBECFEFD1E2DEBFCDBF00E00CBFA7
:1003000014E0A0E0B2E0E6EEFCE100E00BBF02C0CA
:1003100007900D92AE35B107D9F725E0AEE5B4E010
:1003200001C01D92A53BB207E1F711E0C8E7D1E09B
:1003300000E006C021970109802FFE010E94690E8E
:10034000C737D10780E00807A9F70E94900A0C94EC
:10035000710E0C940000E0910405F09105053097B2
:1003600029F01092FF041092FE0419940895CF937F
:10037000DF93AC01E0910205F09103053097F1F0B5
:1003800090910105809100059817C0F090E0292F09
:1003900030E02617370754F4D901AF59BB4F240F6B
:1003A000351FE90128812C939F5FF1CF1092010541
:1003B00060930005CB01DF91CF911994DF91CF912C
:1003C0000895AF92BF92CF92DF92EF92FF920F9378
:1003D0001F93CF93DF936C017B018B01040F151FDB
:1003E000EB015E01AE18BF08C017D10759F0699143
:1003F000D601ED91FC910190F081E02DC601199597
:10040000892B79F7C501DF91CF911F910F91FF9053
:10041000EF90DF90CF90BF90AF900895FC01538D87
:10042000448D252F30E0842F90E0821B930B5417CE
:1004300010F0CF96089501970895FC01918D828D5B
:10044000981761F0A28DAE0FBF2FB11D5D968C91F4
:10045000928D9F5F9F73928F90E008958FEF9FEF33
:100460000895FC01918D828D981731F0828DE80FEF
:10047000F11D858D90E008958FEF9FEF0895FC01A9
:10048000918D228D892F90E0805C9F4F821B910976
:100490008F73992708958CE095E00E943F0221E038
:1004A000892B09F420E0822F0895FC01A48DA80F68
:1004B000B92FB11DA35ABF4F2C91848D90E00196A6
:1004C0008F739927848FA689B7892C93A089B189C6
:1004D0008C91837080648C93938D848D981306C067
:1004E0000288F389E02D80818F7D80830895EF92CB
:1004F000FF920F931F93CF93DF93EC0181E0888FDE
:100500009B8D8C8D98131AC0E889F989808185FFAD
:1005100015C09FB7F894EE89FF896083E889F9894F
:1005200080818370806480839FBF81E090E0DF9151
:10053000CF911F910F91FF90EF900895F62E0B8DA4
:1005400010E00F5F1F4F0F731127E02E8C8D8E115F
:100550000CC00FB607FCFACFE889F989808185FFC6
:10056000F5CFCE010E945502F1CFEB8DEC0FFD2FA0
:10057000F11DE35AFF4FF0829FB7F8940B8FEA8981
:10058000FB8980818062CFCFCF93DF93EC01888D90
:100590008823B9F0AA89BB89E889F9898C9185FDFE
:1005A00003C0808186FD0DC00FB607FCF7CF8C918C
:1005B00085FFF2CF808185FFEDCFCE010E945502ED
:1005C000E9CFDF91CF91089580E090E0892B29F069
:1005D0000E944B0281110E94000080E090E0892B74
:1005E00049F080E090E0892B29F00E940000811101
:1005F0000E94000080E090E0892B49F080E090E0CC
:10060000892B29F00E94000081110E94000080E0E7
:1006100090E0892B49F080E090E0892B29F00E943E
:10062000000081110C94000008958150823108F07F
:100630005AC0E82FF0E08827EF5DFC4F8F4F0C94F5
:10064000690E41034503330339033D037303480334
:100650004E03520358035C03600366036A0373038B
:100660006E0374037803809180008F7780938000FD
:100670000895809180008F7DF9CF80918000877FE1
:10068000F5CF84B58F7784BD089584B58F7DFBCF7A
:100690008091B0008F778093B00008958091B00072
:1006A0008F7DF9CF809190008F778093900008958F
:1006B000809190008F7DF9CF80919000877FF5CF5A
:1006C0008091A0008F778093A00008958091A00072
:1006D0008F7DF9CF8091A000877FF5CF8091200199
:1006E0008F77809320010895809120018F7DF9CF2D
:1006F00080912001877FF5CFCF93DF93282F30E0C3
:10070000F901E855FD4F8491F901EE59FD4FD4915F
:10071000F901E45EFD4FC491CC23A1F081110E9448
:100720001503EC2FF0E0EE0FFF1FEE5FFD4FA591DC
:10073000B491EC91ED2381E090E009F480E0DF9149
:10074000CF91089580E090E0FACF1F93CF93DF938D
:10075000282F30E0F901E855FD4F8491F901EE5959
:10076000FD4FD491F901E45EFD4FC491CC23A9F073
:10077000162F81110E941503EC2FF0E0EE0FFF1FE2
:10078000E851FE4FA591B4918FB7F894EC911111F7
:1007900008C0D095DE23DC938FBFDF91CF911F91EE
:1007A0000895DE2BF8CFCF93DF9390E0FC01EE5954
:1007B000FD4F2491845E9D4FFC0184918823D1F0EC
:1007C00090E0880F991FFC01E253FE4FA591B49170
:1007D000FC01E851FE4FC591D49161110EC09FB745
:1007E000F8948C91E22FE0958E238C932881E2235C
:1007F000E8839FBFDF91CF9108958FB7F894EC9174
:10080000E22BEC938FBFF6CF2091A704260F33275E
:10081000331F21323105ECF42091CB04FC0190E030
:1008200080E0243069F082E00895A091A70421912E
:10083000AC0149575B4FA40FB52FB11D2C93019606
:10084000861798F38091A704680F6093A70480E04F
:10085000089581E008951092CB0481E08093CD0447
:100860001092CC0461E084E10E94A50361E085E17F
:100870000E94A503E9EBF0E080818E7F8083808178
:100880008D7F808388E48093B80085E48093BC00EA
:1008900008950895E091010580910005E81730F46E
:1008A000F0E0EF59FB4F808190E008958FEF9FEFCC
:1008B000089590910105809100052FEF3FEF981763
:1008C00048F4E92FF0E0EF59FB4F208130E09F5FC3
:1008D00090930105C901089580910005909101054B
:1008E000891B990B0895CF93DF93CB01EA01642F05
:1008F0000E940404CE01DF91CF910895CF93DF933E
:100900001F92CDB7DEB7698361E0CE0101960E94E8
:10091000040481E090E00F90DF91CF91089590E082
:1009200080E00895FC0101900020E9F73197AF01C4
:10093000481B590BBC018CE095E00C94E1018F92AF
:100940009F92AF92BF920F931F93CF93DF93CDB738
:10095000DEB7A1970FB6F894DEBF0FBECDBF19A2C8
:10096000423008F44AE08E010F5D1F4F842E912C17
:10097000B12CA12CA50194010E94470EE62FB901CC
:10098000CA01EA30F4F4E05DD801EE938D01232B27
:10099000242B252B79F790E080E0109719F0CD01FA
:1009A0000E949204A1960FB6F894DEBF0FBECDBF91
:1009B000DF91CF911F910F91BF90AF909F908F903B
:1009C0000895E95CE1CF0C949204CF93DF930E94E9
:1009D0009204EC0185E392E00E9492048C0F9D1F2B
:1009E000DF91CF910895CF93DF93682F70E090E06F
:1009F00080E04AE00E949F04EC0185E392E00E94BF
:100A000092048C0F9D1FDF91CF910895CF92DF92BA
:100A1000EF92FF92CF93DF936C01990FEE08FF08DE
:100A2000F7FE1FC06DE28CE095E00E947702EC01BA
:100A300066277727CB016C197D098E099F094AE04B
:100A40000E949F04C80FD91F85E392E00E94920480
:100A50008C0F9D1FDF91CF91FF90EF90DF90CF9093
:100A600008954AE0C701B6010E949F04EC01ECCF53
:100A7000EF92FF920F931F93CF93DF9388E392E05F
:100A80000E94E3049091000580910105981709F4F4
:100A900029C189EA95E00E94590480935F0489EA9C
:100AA00095E00E94590480935E048BE492E00E94DA
:100AB000E30460915F0470E090E080E04AE00E940F
:100AC0009F0482E592E00E94E30480915E040E940C
:100AD000F304C5E0D2E0999180915F04981312C0AD
:100AE00086E592E00E94E50480915E04813009F081
:100AF00074C080E792E00E94E50461E080915F04A9
:100B00000E94A50382E0C131D80729F780915F04D4
:100B1000803209F484C080915F04843689F482EACB
:100B200092E00E94E50480915E048F3F09F46DC05D
:100B300080E992E00E94E30480915E040E94F30445
:100B400080915F04853689F482EA92E00E94E50490
:100B500080915E048F3F09F45DC080E992E00E94BD
:100B6000E30480915E040E94F30402E012E0C1E01D
:100B7000D0E0F801F1908F0180915F04F81228C055
:100B80008CED92E00E94E50480915E048F3F09F4B1
:100B90007DC09E0121503109F901E75FFA4F908134
:100BA00091110CC0813031F4F901EA5FFA4F4081B4
:100BB00041114FC02A5F3A4FF9018083811145C02E
:100BC00088E792E00E94E50460E08F2D0E94A50373
:100BD0002196C430D10569F655CF811106C088E74A
:100BE00092E00E94E50460E089CF8F3F29F481E81C
:100BF00092E00E94E50486CF80E992E00E94E3043F
:100C000080915E040E94F3047DCF81E892E00E940F
:100C1000E50496CF81E892E00E94E504A6CF83EC3C
:100C200092E00E94E50480915E048F3F29F481E800
:100C300092E00E94E5046FCF80E992E00E94E30415
:100C400080915E040E94F30466CF8130F9F4911123
:100C50001DC08FEF92E00E94E30480915E040E9429
:100C6000F30482E30E947C03892B41F48AE093E041
:100C70000E94E50461E082E30E94A5038EE193E017
:100C80000E94E30461E080915F04A0CF9EEF980F83
:100C90009D30C0F4CE01885F9A4F7C01FC018081B9
:100CA000811117C08FEF92E00E94E30480915E04EF
:100CB0000E94F30480915E04815080935E04F701EA
:100CC000808386CF8F3F29F481E892E00E94E5047B
:100CD0007FCF80E992E00E94E30480915E040E944D
:100CE000F30476CFDF91CF911F910F91FF90EF909A
:100CF0000895CF93DF9385ED8093BC0080918304AA
:100D000090918404A0918504B09186040796A11D5A
:100D1000B11D23E0B695A795979587952A95D1F7AC
:100D20002091BC0024FD03C01092CB0436C040913A
:100D30008304509184046091850470918604452B4E
:100D4000462B472B69F30097A105B10541F025E338
:100D50002A95F1F700000197A109B109E1CF80912F
:100D6000820491E0909381048823B9F0C091B80087
:100D7000D091BA008091BC008A7B8093BC0060E077
:100D800084E10E94A50360E085E10E94A5030E9422
:100D90002B04D093BA00C093B800DF91CF9108958F
:100DA000CF92DF92EF92FF920F931F93CF93DF9337
:100DB00000D01F92CDB7DEB78BE492E00E94E3042F
:100DC00060915F0470E090E080E04AE00E949F0440
:100DD00089E492E00E94E30480915F0405E012E060
:100DE00021E1E22E22E0F22E8F3F49F58FE293E0DF
:100DF0000E94E3044AE06CE070E080E090E00E9432
:100E00009F046CE089EA95E00E947E044CE050E08B
:100E100065E072E089EA95E00E94730489E593E059
:100E20000E94E5040F900F900F900F90DF91CF91EB
:100E30001F910F91FF90EF90DF90CF900895F801F0
:100E400081918F0190915F04891311C00E947C03EE
:100E5000682F89EA95E00E947E048DE693E00E9467
:100E6000E50480915F040E947C030E940605E01661
:100E7000F10629F780915F04803251F489E893E00C
:100E80000E94E50480915F040E947C030E94060595
:100E900000E012E0F80191918F0180915F049813B6
:100EA00082C084EA93E00E94E50490915F048CE99B
:100EB000890F863310F086E6890F20917B00982FEA
:100EC0009870277F922B90937B008770806480932B
:100ED0007C0080917A00806480937A0080917A000F
:100EE00086FDFCCF8091780060917900762F682F85
:100EF000072E000C880B990B0E94C90C9B01AC01BA
:100F000060E070E080E894E40E94550C20E030E05E
:100F100040E85FE30E94E80B20E030E44CE156E457
:100F20000E94A50D20E030E44CE156E40E94550CEF
:100F30000E945D0D2AED3AED43E759E30E94A50DAD
:100F40002FE03FEC4BE55BE30E94E90B9B01AC011A
:100F500060E070E080E89FE30E94550C23E333E9F2
:100F600048E853E40E94E80B20E030E040E151E41F
:100F70000E94A50D20E030E040EA50E40E94550CAC
:100F800020E030E040E052E40E94E90B69837A837C
:100F90008B839C8344E050E0BE016F5F7F4F89EA02
:100FA00095E00E947304F2E002301F0709F072CF4F
:100FB00082E0E82E82E0F82E06E015E095E0C92EEA
:100FC00092E0D92EF70191917F0180915F049813EF
:100FD0000EC087EC93E00E94E304F80180810E9438
:100FE000F304F801608189EA95E00E947E040F5FB6
:100FF0001F4FCE14DF0431F715CF1F920F920FB69B
:101000000F9211240BB60F922F933F934F935F9340
:101010006F937F938F939F93AF93BF93EF93FF93C0
:101020008CE095E00E945502FF91EF91BF91AF9146
:101030009F918F917F916F915F914F913F912F91F0
:101040000F900BBE0F900FBE0F901F9018951F9220
:101050000F920FB60F9211240BB60F922F938F930E
:101060009F93EF93FF93E0911C05F0911D05808104
:10107000E0912205F091230582FD1DC090818091B1
:1010800025058F5F8F7320912605821741F0E0912F
:101090002505F0E0E45FFA4F958F80932505FF91D9
:1010A000EF919F918F912F910F900BBE0F900FBEDC
:1010B0000F901F9018958081F2CF1F920F920FB65C
:1010C0000F9211242F933F938F939F93AF93BF93CE
:1010D0008091F6049091F704A091F804B091F9047E
:1010E0003091F50423E0230F2D3758F50196A11D0B
:1010F000B11D2093F5048093F6049093F704A09318
:10110000F804B093F9048091F1049091F204A09155
:10111000F304B091F4040196A11DB11D8093F10474
:101120009093F204A093F304B093F404BF91AF91B1
:101130009F918F913F912F910F900FBE0F901F9015
:10114000189526E8230F0296A11DB11DD2CF1F923C
:101150000F920FB60F9211240BB60F922F933F935D
:101160004F935F936F937F938F939F93AF93BF93AF
:10117000EF93FF938091B900887F803609F44DC0CA
:1011800008F040C0883209F4A9C028F5803109F47C
:101190009DC0C8F4882309F4FBC0883009F496C0C8
:1011A000FF91EF91BF91AF919F918F917F916F913F
:1011B0005F914F913F912F910F900BBE0F900FBEFB
:1011C0000F901F901895883109F488C0803241F73C
:1011D0008093CA0414C0803409F49DC040F4803365
:1011E000B9F38833E9F68093CA0485ECB0C0803542
:1011F00009F485C0883509F496C0883489F60E94C0
:101200007906CECF883909F48CC038F5883729F0B3
:1012100050F4883611F0803719F683E08093CB04C0
:101220001092C90457C0883809F47BC0803919F07E
:10123000803809F0B5CF8091C904803208F071C0C0
:10124000E091C90481E08E0F8093C9048091BB00B6
:10125000F0E0E755FB4F80833DC0803B39F0E0F480
:10126000803A09F479C0883A09F09ACF84E08093F3
:10127000CB041092A8041092A704E091FC04F09112
:10128000FD0419958091A70481110FC081E080931E
:10129000A7041092870409C0803C09F4A6CF883CBB
:1012A00009F4A3CF883B09F07BCFE091A80481E04B
:1012B0008E0F8093A804F0E0E957FB4F8081809364
:1012C000BB009091A8048091A70429C08091F004EC
:1012D0008093BB0085EC8093BC0062CF9091EF04BB
:1012E0008091EE04981758F5E091EF0481E08E0F9D
:1012F0008093EF04F0E0E253FB4F8081E9CFE0916F
:10130000EF0481E08E0F8093EF048091BB00F0E04A
:10131000E253FB4F80839091EF048091EE04981785
:10132000C8F285E8D8CFE091EF0481E08E0F80937A
:10133000EF048091BB00F0E0E253FB4F808380918B
:10134000CD0481115CCF81E08093CC0484EA80934A
:10135000BC001092CB0424CF85EC8093BC0010928B
:10136000CB048091C904803230F4E091C904F0E0EC
:10137000E755FB4F10826091C90470E0E091FA04D8
:10138000F091FB0489EA94E019951092C90408CF02
:101390001092CA0434CF1F920F920FB60F921124ED
:1013A0000BB60F92FF920F931F932F933F934F9380
:1013B0005F936F937F938F939F93AF93BF93CF93DD
:1013C000DF93EF93FF9309E015E0D0E0C0E0F80170
:1013D00081918F018823F9F082E30E947C03892B9D
:1013E00041F48AE093E00E94E50461E082E30E9418
:1013F000A503FE01EE5FFD4FF0808F2D0E947C0360
:10140000892B09F04BC061E08F2D0E94A503F801E4
:101410008291815080832196C330D105C1F6C0915D
:10142000600480910605882311F0CCE381E090915F
:101430000705992311F0CCE381E0909108059923E9
:1014400011F0CCE381E0C093600481110FC082E30E
:101450000E947C03892B51F0C11125C08EE494E0D9
:101460000E94E50460E082E30E94A503FF91EF91F2
:10147000DF91CF91BF91AF919F918F917F916F91AC
:101480005F914F913F912F911F910F91FF900F907E
:101490000BBE0F900FBE0F901F90189560E08F2D20
:1014A0000E94A503B8CFC150C0936004DFCFECE029
:1014B000F5E01382128288EE93E0A0E0B0E084832E
:1014C0009583A683B78325E132E03183208325EC21
:1014D00030E03587248724EC30E03787268720ECFE
:1014E00030E0318B208B21EC30E0338B228B22ECEF
:1014F00030E0358B248B26EC30E0378B268B118E39
:10150000128E138E148EE9EAF5E013821282848320
:101510009583A683B78387E292E0918380830895C1
:10152000789484B5826084BD84B5816084BD85B5BE
:10153000826085BD85B5816085BD80916E008160CA
:1015400080936E0010928100809181008260809370
:101550008100809181008160809381008091800072
:101560008160809380008091B10084608093B1009D
:101570008091B00081608093B00080919100826082
:10158000809391008091910081608093910080917F
:1015900090008160809390008091A1008260809390
:1015A000A1008091A10081608093A1008091A000A2
:1015B00081608093A000809121018260809321014D
:1015C00080912101816080932101809120018160BF
:1015D0008093200180917A00846080937A008091CA
:1015E0007A00826080937A0080917A008160809393
:1015F0007A0080917A00806880937A001092C1000E
:10160000E0911C05F0911D0582E08083E0911805B2
:10161000F09119051082E0911A05F0911B0580E107
:10162000808310922405E0912005F091210586E049
:101630008083E0911E05F0911F0580818061808389
:10164000E0911E05F0911F05808188608083E09104
:101650001E05F0911F05808180688083E0911E0542
:10166000F0911F0580818F7D80838CE08093B8008E
:1016700010920105109200051092FF041092FE04D2
:101680000E942B048BEA91E09093FD048093FC046C
:1016900087EB91E09093FB048093FA0488E08093B9
:1016A000BA0088E395E0909303058093020580EDEE
:1016B00096E0909305058093040580EF93E00E94E7
:1016C000E50487E094E00E94E30484E090E00E9457
:1016D0000605C5E0D2E0199161E0812F0E94D30395
:1016E00060E0812F0E94A50381E294E00E94E30460
:1016F000812F0E94F30482E0C131D80761F760E0D6
:1017000080E20E94D3038AE294E00E94E30480E234
:101710000E94F30482E0C82E82E0D82E99E0E92EE0
:1017200095E0F92E06E015E0F601C1916F0161E048
:101730008C2F0E94D30360E08C2F0E94A503F70139
:1017400011927F01F80111928F0182E394E00E94CF
:10175000E3046C2F70E090E080E04AE00E949F0478
:1017600084E494E00E94E304F801319780810E94B0
:10177000F304F5E0CF16F2E0DF06B1F661E082E3B4
:101780000E94D30360E082E30E94A503F8941092C4
:10179000900010929100109295001092940082E1B6
:1017A0009AE79093990080939800809191008860C7
:1017B000809391008091910084608093910080914A
:1017C000710082608093710078940E94E402FDCFE2
:1017D0005058BB27AA270E94000C0C941B0D0E9496
:1017E0000D0D38F00E94140D20F039F49F3F19F4CC
:1017F00026F40C940A0D0EF4E095E7FB0C94040D0E
:10180000E92F0E942C0D58F3BA176207730784075B
:10181000950720F079F4A6F50C944E0D0EF4E095A2
:101820000B2EBA2FA02D0B01B90190010C01CA019A
:10183000A0011124FF27591B99F0593F50F4503E45
:1018400068F11A16F040A22F232F342F4427585F37
:10185000F3CF469537952795A795F0405395C9F74F
:101860007EF41F16BA0B620B730B840BBAF0915007
:10187000A1F0FF0FBB1F661F771F881FC2F70EC0A6
:10188000BA0F621F731F841F48F487957795679579
:10189000B795F7959E3F08F0B0CF9395880F08F065
:1018A0009927EE0F9795879508950E94690C0C94DF
:1018B0001B0D0E94140D58F00E940D0D40F029F4EC
:1018C0005F3F29F00C94040D51110C944F0D0C94B2
:1018D0000A0D0E942C0D68F39923B1F3552391F35F
:1018E000951B550BBB27AA2762177307840738F08F
:1018F0009F5F5F4F220F331F441FAA1FA9F335D0EC
:101900000E2E3AF0E0E832D091505040E695001C9F
:10191000CAF72BD0FE2F29D0660F771F881FBB1F59
:10192000261737074807AB07B0E809F0BB0B802D37
:10193000BF01FF2793585F4F3AF09E3F510578F063
:101940000C94040D0C944F0D5F3FE4F3983ED4F3D8
:10195000869577956795B795F7959F5FC9F7880F37
:10196000911D9695879597F90895E1E0660F771F89
:10197000881FBB1F621773078407BA0720F0621B1A
:10198000730B840BBA0BEE1F88F7E0950895E8946B
:1019900009C097FB3EF490958095709561957F4FB7
:1019A0008F4F9F4F9923A9F0F92F96E9BB27939565
:1019B000F695879577956795B795F111F8CFFAF475
:1019C000BB0F11F460FF1BC06F5F7F4F8F4F9F4FA6
:1019D00016C0882311F096E911C0772321F09EE804
:1019E000872F762F05C0662371F096E8862F70E06A
:1019F00060E02AF09A95660F771F881FDAF7880F44
:101A00009695879597F9089597F99F6780E870E014
:101A100060E008959FEF80EC089500240A94161664
:101A2000170618060906089500240A9412161306CC
:101A3000140605060895092E0394000C11F488235A
:101A400052F0BB0F40F4BF2B11F460FF04C06F5F76
:101A50007F4F8F4F9F4F089557FD9058440F551F4C
:101A600059F05F3F71F04795880F97FB991F61F020
:101A70009F3F79F087950895121613061406551F97
:101A8000F2CF4695F1DF08C0161617061806991F03
:101A9000F1CF86957105610508940895E894BB27F8
:101AA00066277727CB0197F9089516F00C94120E4C
:101AB0000C940A0D68940C94040D0E94340DA8F344
:101AC0009923C1F3AEF3DF93CF931F930F93FF924C
:101AD000C92FDD2788232AF02197660F771F881FDB
:101AE000DAF720E030E040E85FEB9FE3883920F050
:101AF000803E38F021968F770E94E90BE4EEF0E00B
:101B000004C00E94E90BE1E1F1E00E94200E8B018C
:101B1000BE01EC01FB2E6F5771097595771F880B7D
:101B2000990B0E94C90C28E132E741E35FE30E9470
:101B3000B80DAF2D9801AE01FF900F911F91CF917D
:101B4000DF910E94000C0C941B0D0E94B80D0C94A8
:101B50001B0D0E940D0D38F00E94140D20F09523EE
:101B600011F00C94040D0C940A0D11240C944F0DDB
:101B70000E942C0D70F3959FC1F3950F50E0551FF7
:101B8000629FF001729FBB27F00DB11D639FAA27D2
:101B9000F00DB11DAA1F649F6627B00DA11D661F21
:101BA000829F2227B00DA11D621F739FB00DA11D42
:101BB000621F839FA00D611D221F749F3327A00DFC
:101BC000611D231F849F600D211D822F762F6A2F98
:101BD00011249F5750409AF0F1F088234AF0EE0FFD
:101BE000FF1FBB1F661F771F881F91505040A9F72A
:101BF0009E3F510580F00C94040D0C944F0D5F3FF7
:101C0000E4F3983ED4F3869577956795B795F79565
:101C1000E7959F5FC1F7FE2B880F911D96958795DD
:101C200097F908959F3F31F0915020F4879577956B
:101C30006795B795880F911D9695879597F90895A3
:101C4000DF93CF931F930F93FF92EF92DF927B016D
:101C50008C01689406C0DA2EEF010E94B80DFE01D7
:101C6000E894A5912591359145915591A6F3EF0101
:101C70000E94000CFE019701A801DA9469F7DF9039
:101C8000EF90FF900F911F91CF91DF910895A1E206
:101C90001A2EAA1BBB1BFD010DC0AA1FBB1FEE1FE6
:101CA000FF1FA217B307E407F50720F0A21BB30B31
:101CB000E40BF50B661F771F881F991F1A9469F7AD
:101CC00060957095809590959B01AC01BD01CF0109
:101CD0000895EE0FFF1F881F8BBF0790F691E02D30
:061CE0001994F894FFCFF7
:101CE600646533343522232425262728292A2B2CDC
:101CF60032000000007702E1010E02C4023F021D1D
:101D0600023102000000007E0473048F0449046C53
:101D16000459044A040D0A005265636569766564D0
:101D260020646174612E2E2E2E20004750494F3AB2
:101D36002000203A20004750494F206D61746368A7
:101D46006573206F757450696E73206C69737400C7
:101D56004750494F204F4E004750494F204F464667
:101D660000526561642072657175657374656400FF
:101D7600204E6F20636F6D6D616E6420666F723AE0
:101D860020004750494F206D617463686573207465
:101D96006865726D6973746F7250696E73206C69D1
:101DA6007374004750494F206D61746368657320F2
:101DB600696E50696E73206C697374004750494FA1
:101DC600206D61746368657320696E74656C6C69F7
:101DD600627269746550696E73206C69737400472A
:101DE60050494F20636D643A20005475726E20741A
:101DF60072616E73666F726D6572206F6E00496EEA
:101E060074656C6C696272697465204F6E2000445B
:101E16006973636F7665727920726571756573741F
:101E26002E2E2E2E20576972652E777269746520C4
:101E36006C656E6774683A20002E2E2E202053653E
:101E46006E74206770696F206C697374004750491F
:101E56004F206D617463686573206F757450696E89
:101E660073206C6973743A20004750494F206D61A6
:101E7600746368657320696E50696E73206C69734C
:101E8600743A20004750494F206D6174636865734A
:101E960020746865726D6973746F7250696E732011
:101EA6006C6973743A200052656164204750494F4B
:101EB600206D61746368657320696E74656C6C6906
:101EC600627269746550696E73206C697374200060
:101ED600706F6F6C2D6932632D6D6567612E696E4B
:101EE6006F2076302E3100526561647921202D20D5
:101EF600536C6176652041646472657373203D207E
:101F0600006F757450696E733D00696E50696E732B
:101F16003D00696E74656C6C6962726974655069BE
:101F26006E733D002C205374617475733D005472BA
:0E1F3600616E73666F726D6572204F66660095
:00000001FF
