:020000040000FA
:100000000C9478010C94A9010C94A9010C94A901F9
:100010000C94A9010C94A9010C94A9010C94A901B8
:100020000C94A9010C94A9010C94A9010C94A901A8
:100030000C94A9010C94A9010C94A9010C94A90198
:100040000C94A9010C94A9010C94A9010C94A90188
:100050000C94A9010C94A9010C94A9010C945D08BD
:100060000C94A9010C9427080C94FD070C94A90189
:100070000C94A9010C94A9010C94A9010C94A90158
:100080000C94CB090C94A9010C94A9010C94A9011E
:100090000C94A9010C94A9010C94A9010C94A70833
:1000A0000C94A9010C94A9010C94A9010C94A90128
:1000B0000C94A9010C94A9010C94A9010C94A90118
:1000C0000C94A9010C94A9010C94A9010C94A90108
:1000D0000C94A9010C94A9010C94A9010C94A901F8
:1000E0000C94A90108000000BE922449123EABAA5C
:1000F000AA2ABECDCCCC4C3E00000080BEABAAAA42
:10010000AA3E00000000BF000000803F0000000089
:1001100000084178D3BB4387D1133D190E3CC3BDC2
:100120004282AD2B3E68EC8276BED98FE1A93E4C6F
:1001300080EFFFBE01C4FF7F3F00000000000C9471
:100140008F040C94E1010C9441030C944E030C9425
:100150004A040C943D030C9474030C94B7010C9462
:1001600078030C945C030C94AB010C9458030C942E
:1001700045030C946E030C9431020C9473040C949C
:1001800066030C943F020C946C040C947E040C9453
:10019000D0060C9452030C9448030C9438050C942C
:1001A00060030C941D020C9473030C94C4020C9411
:1001B00077020C94570A0C9439030C946A030C943C
:1001C0000E020C9449040C9459040C94330300005F
:1001D0002100240027002A002D00300033000101F7
:1001E0000000040107010A01000022002500280088
:1001F0002B002E003100340002010000050108012F
:100200000B01000020002300260029002C002F00F5
:100210003200000100000301060109010505050582
:10022000070508080808020202020A0A080804046E
:10023000040401010101010101010303030303039C
:100240000303040707070C0C0C0C0C0C0C0C02022B
:10025000020206060606060606060B0B0B0B0B0B28
:100260000B0B0102102020080810204010204080B5
:10027000020102010804020101020408102040806A
:1002800080402010080402018004020180402010F8
:100290000804020108040201010204081020408041
:1002A000010204081020408000000A0B02090C0D16
:1002B0000E08070304010000000000000000000019
:1002C000000000000000000000000000000000002E
:1002D00000000000121110000000000000000000EB
:1002E0000000000000000000000000000000570AAD
:1002F00011241FBECFEFD1E2DEBFCDBF00E00CBFA7
:1003000014E0A0E0B2E0E6EEFCE100E00BBF02C0CA
:1003100007900D92AE35B107D9F725E0AEE5B4E010
:1003200001C01D92A53BB207E1F711E0C8E7D1E09B
:1003300000E006C021970109802FFE010E94690E8E
:10034000C737D10780E00807A9F70E94900A0C94EC
:10035000710E0C940000E0910405F09105053097B2
:1003600029F01092FF041092FE0419940895CF937F
:10037000DF93AC01E0910205F09103053097F1F0B5
:1003800090910105809100059817C0F090E0292F09
:1003900030E02617370754F4D901AF59BB4F240F6B
:1003A000351FE90128812C939F5FF1CF1092010541
:1003B00060930005CB01DF91CF911994DF91CF912C
:1003C0000895AF92BF92CF92DF92EF92FF920F9378
:1003D0001F93CF93DF936C017B018B01040F151FDB
:1003E000EB015E01AE18BF08C017D10759F0699143
:1003F000D601ED91FC910190F081E02DC601199597
:10040000892B79F7C501DF91CF911F910F91FF9053
:10041000EF90DF90CF90BF90AF900895FC01538D87
:10042000448D252F30E0842F90E0821B930B5417CE
:1004300010F0CF96089501970895FC01918D828D5B
:10044000981761F0A28DAE0FBF2FB11D5D968C91F4
:10045000928D9F5F9F73928F90E008958FEF9FEF33
:100460000895FC01918D828D981731F0828DE80FEF
:10047000F11D858D90E008958FEF9FEF0895FC01A9
:10048000918D228D892F90E0805C9F4F821B910976
:100490008F73992708958CE095E00E943F0221E038
:1004A000892B09F420E0822F0895FC01A48DA80F68
:1004B000B92FB11DA35ABF4F2C91848D90E00196A6
:1004C0008F739927848FA689B7892C93A089B189C6
:1004D0008C91837080648C93938D848D981306C067
:1004E0000288F389E02D80818F7D80830895EF92CB
:1004F000FF920F931F93CF93DF93EC0181E0888FDE
:100500009B8D8C8D98131AC0E889F989808185FFAD
:1005100015C09FB7F894EE89FF896083E889F9894F
:1005200080818370806480839FBF81E090E0DF9151
:10053000CF911F910F91FF90EF900895F62E0B8DA4
:1005400010E00F5F1F4F0F731127E02E8C8D8E115F
:100550000CC00FB607FCFACFE889F989808185FFC6
:10056000F5CFCE010E945502F1CFEB8DEC0FFD2FA0
:10057000F11DE35AFF4FF0829FB7F8940B8FEA8981
:10058000FB8980818062CFCFCF93DF93EC01888D90
:100590008823B9F0AA89BB89E889F9898C9185FDFE
:1005A00003C0808186FD0DC00FB607FCF7CF8C918C
:1005B00085FFF2CF808185FFEDCFCE010E945502ED
:1005C000E9CFDF91CF91089580E090E0892B29F069
:1005D0000E944B0281110E94000080E090E0892B74
:1005E00049F080E090E0892B29F00E940000811101
:1005F0000E94000080E090E0892B49F080E090E0CC
:10060000892B29F00E94000081110E94000080E0E7
:1006100090E0892B49F080E090E0892B29F00E943E
:10062000000081110C94000008958150823108F07F
:100630005AC0E82FF0E08827EF5DFC4F8F4F0C94F5
:10064000690E41034503330339033D037303480334
:100650004E03520358035C03600366036A0373038B
:100660006E0374037803809180008F7780938000FD
:100670000895809180008F7DF9CF80918000877FE1
:10068000F5CF84B58F7784BD089584B58F7DFBCF7A
:100690008091B0008F778093B00008958091B00072
:1006A0008F7DF9CF809190008F778093900008958F
:1006B000809190008F7DF9CF80919000877FF5CF5A
:1006C0008091A0008F778093A00008958091A00072
:1006D0008F7DF9CF8091A000877FF5CF8091200199
:1006E0008F77809320010895809120018F7DF9CF2D
:1006F00080912001877FF5CFCF93DF93282F30E0C3
:10070000F901E855FD4F8491F901EE59FD4FD4915F
:10071000F901E45EFD4FC491CC23A1F081110E9448
:100720001503EC2FF0E0EE0FFF1FEE5FFD4FA591DC
:10073000B491EC91ED2381E090E009F480E0DF9149
:10074000CF91089580E090E0FACF1F93CF93DF938D
:10075000282F30E0F901E855FD4F8491F901EE5959
:10076000FD4FD491F901E45EFD4FC491CC23A9F073
:10077000162F81110E941503EC2FF0E0EE0FFF1FE2
:10078000E851FE4FA591B4918FB7F894EC911111F7
:1007900008C0D095DE23DC938FBFDF91CF911F91EE
:1007A0000895DE2BF8CFCF93DF9390E0FC01EE5954
:1007B000FD4F2491845E9D4FFC0184918823D1F0EC
:1007C00090E0880F991FFC01E253FE4FA591B49170
:1007D000FC01E851FE4FC591D49161110EC09FB745
:1007E000F8948C91E22FE0958E238C932881E2235C
:1007F000E8839FBFDF91CF9108958FB7F894EC9174
:10080000E22BEC938FBFF6CF2091A704260F33275E
:10081000331F21323105ECF42091CB04FC0190E030
:1008200080E0243069F082E00895A091A70421912E
:10083000AC0149575B4FA40FB52FB11D2C93019606
:10084000861798F38091A704680F6093A70480E04F
:10085000089581E008951092CB0481E08093CD0447
:100860001092CC0461E084E10E94A50361E085E17F
:100870000E94A503E9EBF0E080818E7F8083808178
:100880008D7F808388E48093B80085E48093BC00EA
:1008900008950895E091010580910005E81730F46E
:1008A000F0E0EF59FB4F808190E008958FEF9FEFCC
:1008B000089590910105809100052FEF3FEF981763
:1008C00048F4E92FF0E0EF59FB4F208130E09F5FC3
:1008D00090930105C901089580910005909101054B
:1008E000891B990B0895CF93DF93CB01EA01642F05
:1008F0000E940404CE01DF91CF910895CF93DF933E
:100900001F92CDB7DEB7698361E0CE0101960E94E8
:10091000040481E090E00F90DF91CF91089590E082
:1009200080E00895FC0101900020E9F73197AF01C4
:10093000481B590BBC018CE095E00C94E1018F92AF
:100940009F92AF92BF920F931F93CF93DF93CDB738
:10095000DEB7A1970FB6F894DEBF0FBECDBF19A2C8
:10096000423008F44AE08E010F5D1F4F842E912C17
:10097000B12CA12CA50194010E94470EE62FB901CC
:10098000CA01EA30F4F4E05DD801EE938D01232B27
:10099000242B252B79F790E080E0109719F0CD01FA
:1009A0000E949204A1960FB6F894DEBF0FBECDBF91
:1009B000DF91CF911F910F91BF90AF909F908F903B
:1009C0000895E95CE1CF0C949204CF93DF930E94E9
:1009D0009204EC0185E392E00E9492048C0F9D1F2B
:1009E000DF91CF910895CF93DF93682F70E090E06F
:1009F00080E04AE00E949F04EC0185E392E00E94BF
:100A000092048C0F9D1FDF91CF910895CF92DF92BA
:100A1000EF92FF92CF93DF936C01990FEE08FF08DE
:100A2000F7FE1FC06DE28CE095E00E947702EC01BA
:100A300066277727CB016C197D098E099F094AE04B
:100A40000E949F04C80FD91F85E392E00E94920480
:100A50008C0F9D1FDF91CF91FF90EF90DF90CF9093
:100A600008954AE0C701B6010E949F04EC01ECCF53
:100A7000EF92FF920F931F93CF93DF9388E392E05F
:100A80000E94E3049091000580910105981709F4F4
:100A900029C189EA95E00E94590480935F0489EA9C
:100AA00095E00E94590480935E048BE492E00E94DA
:100AB000E30460915F0470E090E080E04AE00E940F
:100AC0009F0482E592E00E94E30480915E040E940C
:100AD000F304C5E0D2E0999180915F04981312C0AD
:100AE00086E592E00E94E50480915E04813009F081
:100AF00074C080E792E00E94E50461E080915F04A9
:100B00000E94A50382E0C131D80729F780915F04D4
:100B1000803209F484C080915F04843689F482EACB
:100B200092E00E94E50480915E048F3F09F46DC05D
:100B300080E992E00E94E30480915E040E94F30445
:100B400080915F04853689F482EA92E00E94E50490
:100B500080915E048F3F09F45DC080E992E00E94BD
:100B6000E30480915E040E94F30402E012E0C1E01D
:100B7000D0E0F801F1908F0180915F04F81228C055
:100B80008CED92E00E94E50480915E048F3F09F4B1
:100B90007DC09E0121503109F901E75FFA4F908134
:100BA00091110CC0813031F4F901EA5FFA4F4081B4
:100BB00041114FC02A5F3A4FF9018083811145C02E
:100BC00088E792E00E94E50460E08F2D0E94A50373
:100BD0002196C430D10569F655CF811106C088E74A
:100BE00092E00E94E50460E089CF8F3F29F481E81C
:100BF00092E00E94E50486CF80E992E00E94E3043F
:100C000080915E040E94F3047DCF81E892E00E940F
:100C1000E50496CF81E892E00E94E504A6CF83EC3C
:100C200092E00E94E50480915E048F3F29F481E800
:100C300092E00E94E5046FCF80E992E00E94E30415
:100C400080915E040E94F30466CF8130F9F4911123
:100C50001DC08FEF92E00E94E30480915E040E9429
:100C6000F30482E30E947C03892B41F48AE093E041
:100C70000E94E50461E082E30E94A5038EE193E017
:100C80000E94E30461E080915F04A0CF9EEF980F83
:100C90009D30C0F4CE01885F9A4F7C01FC018081B9
:100CA000811117C08FEF92E00E94E30480915E04EF
:100CB0000E94F30480915E04815080935E04F701EA
:100CC000808386CF8F3F29F481E892E00E94E5047B
:100CD0007FCF80E992E00E94E30480915E040E944D
:100CE000F30476CFDF91CF911F910F91FF90EF909A
:100CF0000895CF93DF9385ED8093BC0080918304AA
:100D000090918404A0918504B09186040796A11D5A
:100D1000B11D23E0B695A795979587952A95D1F7AC
:100D20002091BC0024FD03C01092CB0436C040913A
:100D30008304509184046091850470918604452B4E
:100D4000462B472B69F30097A105B10541F025E338
:100D50002A95F1F700000197A109B109E1CF80912F
:100D6000820491E0909381048823B9F0C091B80087
:100D7000D091BA008091BC008A7B8093BC0060E077
:100D800084E10E94A50360E085E10E94A5030E9422
:100D90002B04D093BA00C093B800DF91CF9108958F
:100DA000CF92DF92EF92FF920F931F93CF93DF9337
:100DB00000D01F92CDB7DEB78BE492E00E94E3042F
:100DC00060915F0470E090E080E04AE00E949F0440
:100DD00089E492E00E94E30480915F0405E012E060
:100DE00021E1E22E22E0F22E8F3F49F58FE293E0DF
:100DF0000E94E3044AE06CE070E080E090E00E9432
:100E00009F046CE089EA95E00E947E044CE050E08B
:100E100065E072E089EA95E00E94730489E593E059
:100E20000E94E5040F900F900F900F90DF91CF91EB
:100E30001F910F91FF90EF90DF90CF900895F801F0
:100E400081918F0190915F04891311C00E947C03EE
:100E5000682F89EA95E00E947E048DE693E00E9467
:100E6000E50480915F040E947C030E940605E01661
:100E7000F10629F780915F04803251F489E893E00C
:100E80000E94E50480915F040E947C030E94060595
:100E900000E012E0F80191918F0180915F049813B6
:100EA00082C084EA93E00E94E50490915F048CE99B
:100EB000890F863310F086E6890F20917B00982FEA
:100EC0009870277F922B90937B008770806480932B
:100ED0007C0080917A00806480937A0080917A000F
:100EE00086FDFCCF8091780060917900762F682F85
:100EF000072E000C880B990B0E94C90C9B01AC01BA
:100F000060E070E080E894E40E94550C20E030E05E
:100F100040E85FE30E94E80B20E030E44CE156E457
:100F20000E94A50D20E030E44CE156E40E94550CEF
:100F30000E945D0D2AED3AED43E759E30E94A50DAD
:100F40002FE03FEC4BE55BE30E94E90B9B01AC011A
:100F500060E070E080E89FE30E94550C23E333E9F2
:100F600048E853E40E94E80B20E030E040E151E41F
:100F70000E94A50D20E030E040EA50E40E94550CAC
:100F800020E030E040E052E40E94E90B69837A837C
:100F90008B839C8344E050E0BE016F5F7F4F89EA02
:100FA00095E00E947304F2E002301F0709F072CF4F
:100FB00082E0E82E82E0F82E06E015E095E0C92EEA
:100FC00092E0D92EF70191917F0180915F049813EF
:100FD0000EC087EC93E00E94E304F80180810E9438
:100FE000F304F801608189EA95E00E947E040F5FB6
:100FF0001F4FCE14DF0431F715CF1F920F920FB69B
:101000000F9211240BB60F922F933F934F935F9340
:101010006F937F938F939F93AF93BF93EF93FF93C0
:101020008CE095E00E945502FF91EF91BF91AF9146
:101030009F918F917F916F915F914F913F912F91F0
:101040000F900BBE0F900FBE0F901F9018951F9220
:101050000F920FB60F9211240BB60F922F938F930E
:101060009F93EF93FF93E0911C05F0911D05808104
:10107000E0912205F091230582FD1DC090818091B1
:1010800025058F5F8F7320912605821741F0E0912F
:101090002505F0E0E45FFA4F958F80932505FF91D9
:1010A000EF919F918F912F910F900BBE0F900FBEDC
:1010B0000F901F9018958081F2CF1F920F920FB65C
:1010C0000F9211242F933F938F939F93AF93BF93CE
:1010D0008091F6049091F704A091F804B091F9047E
:1010E0003091F50423E0230F2D3758F50196A11D0B
:1010F000B11D2093F5048093F6049093F704A09318
:10110000F804B093F9048091F1049091F204A09155
:10111000F304B091F4040196A11DB11D8093F10474
:101120009093F204A093F304B093F404BF91AF91B1
:101130009F918F913F912F910F900FBE0F901F9015
:10114000189526E8230F0296A11DB11DD2CF1F923C
:101150000F920FB60F9211240BB60F922F933F935D
:101160004F935F936F937F938F939F93AF93BF93AF
:10117000EF93FF938091B900887F803609F44DC0CA
:1011800008F040C0883209F4A9C028F5803109F47C
:101190009DC0C8F4882309F4FBC0883009F496C0C8
:1011A000FF91EF91BF91AF919F918F917F916F913F
:1011B0005F914F913F912F910F900BBE0F900FBEFB
:1011C0000F901F901895883109F488C0803241F73C
:1011D0008093CA0414C0803409F49DC040F4803365
:1011E000B9F38833E9F68093CA0485ECB0C0803542
:1011F00009F485C0883509F496C0883489F60E94C0
:101200007906CECF883909F48CC038F5883729F0B3
:1012100050F4883611F0803719F683E08093CB04C0
:101220001092C90457C0883809F47BC0803919F07E
:10123000803809F0B5CF8091C904803208F071C0C0
:10124000E091C90481E08E0F8093C9048091BB00B6
:10125000F0E0E755FB4F80833DC0803B39F0E0F480
:10126000803A09F479C0883A09F09ACF84E08093F3
:10127000CB041092A8041092A704E091FC04F09112
:10128000FD0419958091A70481110FC081E080931E
:10129000A7041092870409C0803C09F4A6CF883CBB
:1012A00009F4A3CF883B09F07BCFE091A80481E04B
:1012B0008E0F8093A804F0E0E957FB4F8081809364
:1012C000BB009091A8048091A70429C08091F004EC
:1012D0008093BB0085EC8093BC0062CF9091EF04BB
:1012E0008091EE04981758F5E091EF0481E08E0F9D
:1012F0008093EF04F0E0E253FB4F8081E9CFE0916F
:10130000EF0481E08E0F8093EF048091BB00F0E04A
:10131000E253FB4F80839091EF048091EE04981785
:10132000C8F285E8D8CFE091EF0481E08E0F80937A
:10133000EF048091BB00F0E0E253FB4F808380918B
:10134000CD0481115CCF81E08093CC0484EA80934A
:10135000BC001092CB0424CF85EC8093BC0010928B
:10136000CB048091C904803230F4E091C904F0E0EC
:10137000E755FB4F10826091C90470E0E091FA04D8
:10138000F091FB0489EA94E019951092C90408CF02
:101390001092CA0434CF1F920F920FB60F921124ED
:1013A0000BB60F92FF920F931F932F933F934F9380
:1013B0005F936F937F938F939F93AF93BF93CF93DD
:1013C000DF93EF93FF9309E015E0D0E0C0E0F80170
:1013D00081918F018823F9F082E30E947C03892B9D
:1013E00041F48AE093E00E94E50461E082E30E9418
:1013F000A503FE01EE5FFD4FF0808F2D0E947C0360
:10140000892B09F04BC061E08F2D0E94A503F801E4
:101410008291815080832196C330D105C1F6C0915D
:10142000600480910605882311F0CCE381E090915F
:101430000705992311F0CCE381E0909108059923E9
:1014400011F0CCE381E0C093600481110FC082E30E
:101450000E947C03892B51F0C11125C08EE494E0D9
:101460000E94E50460E082E30E94A503FF91EF91F2
:10147000DF91CF91BF91AF919F918F917F916F91AC
:101480005F914F913F912F911F910F91FF900F907E
:101490000BBE0F900FBE0F901F90189560E08F2D20
:1014A0000E94A503B8CFC150C0936004DFCFECE029
:1014B000F5E01382128288EE93E0A0E0B0E084832E
:1014C0009583A683B78325E132E03183208325EC21
:1014D00030E03587248724EC30E03787268720ECFE
:1014E00030E0318B208B21EC30E0338B228B22ECEF
:1014F00030E0358B248B26EC30E0378B268B118E39
:10150000128E138E148EE9EAF5E013821282848320
:101510009583A683B78387E292E0918380830895C1
:10152000789484B5826084BD84B5816084BD85B5BE
:10153000826085BD85B5816085BD80916E008160CA
:1015400080936E0010928100809181008260809370
:101550008100809181008160809381008091800072
:101560008160809380008091B10084608093B1009D
:101570008091B00081608093B00080919100826082
:10158000809391008091910081608093910080917F
:1015900090008160809390008091A1008260809390
:1015A000A1008091A10081608093A1008091A000A2
:1015B00081608093A000809121018260809321014D
:1015C00080912101816080932101809120018160BF
:1015D0008093200180917A00846080937A008091CA
:1015E0007A00826080937A0080917A008160809393
:1015F0007A0080917A00806880937A001092C1000E
:10160000E0911C05F0911D0582E08083E0911805B2
:10161000F09119051082E0911A05F0911B0580E107
:10162000808310922405E0912005F091210586E049
:101630008083E0911E05F0911F0580818061808389
:10164000E0911E05F0911F05808188608083E09104
:101650001E05F0911F05808180688083E0911E0542
:10166000F0911F0580818F7D80838CE08093B8008E
:1016700010920105109200051092FF041092FE04D2
:101680000E942B048BEA91E09093FD048093FC046C
:1016900087EB91E09093FB048093FA0488E08093B9
:1016A000BA0088E395E0909303058093020580EDEE
:1016B00096E0909305058093040580EF93E00E94E7
:1016C000E50487E094E00E94E30484E090E00E9457
:1016D0000605C5E0D2E0199161E0812F0E94D30395
:1016E00060E0812F0E94A50381E294E00E94E30460
:1016F000812F0E94F30482E0C131D80761F760E0D6
:1017000080E20E94D3038AE294E00E94E30480E234
:101710000E94F30482E0C82E82E0D82E99E0E92EE0
:1017200095E0F92E06E015E0F601C1916F0161E048
:101730008C2F0E94D30360E08C2F0E94A503F70139
:1017400011927F01F80111928F0182E394E00E94CF
:10175000E3046C2F70E090E080E04AE00E949F0478
:1017600084E494E00E94E304F801319780810E94B0
:10177000F304F5E0CF16F2E0DF06B1F661E082E3B4
:101780000E94D30360E082E30E94A503F8941092C4
:10179000900010929100109295001092940082E1B6
:1017A0009AE79093990080939800809191008860C7
:1017B000809391008091910084608093910080914A
:1017C000710082608093710078940E94E402FDCFE2
:1017D0005058BB27AA270E94000C0C941B0D0E9496
:1017E0000D0D38F00E94140D20F039F49F3F19F4CC
:1017F00026F40C940A0D0EF4E095E7FB0C94040D0E
:10180000E92F0E942C0D58F3BA176207730784075B
:10181000950720F079F4A6F50C944E0D0EF4E095A2
:101820000B2EBA2FA02D0B01B90190010C01CA019A
:10183000A0011124FF27591B99F0593F50F4503E45
:1018400068F11A16F040A22F232F342F4427585F37
:10185000F3CF469537952795A795F0405395C9F74F
:101860007EF41F16BA0B620B730B840BBAF0915007
:10187000A1F0FF0FBB1F661F771F881FC2F70EC0A6
:10188000BA0F621F731F841F48F487957795679579
:10189000B795F7959E3F08F0B0CF9395880F08F065
:1018A0009927EE0F9795879508950E94690C0C94DF
:1018B0001B0D0E94140D58F00E940D0D40F029F4EC
:1018C0005F3F29F00C94040D51110C944F0D0C94B2
:1018D0000A0D0E942C0D68F39923B1F3552391F35F
:1018E000951B550BBB27AA2762177307840738F08F
:1018F0009F5F5F4F220F331F441FAA1FA9F335D0EC
:101900000E2E3AF0E0E832D091505040E695001C9F
:10191000CAF72BD0FE2F29D0660F771F881FBB1F59
:10192000261737074807AB07B0E809F0BB0B802D37
:10193000BF01FF2793585F4F3AF09E3F510578F063
:101940000C94040D0C944F0D5F3FE4F3983ED4F3D8
:10195000869577956795B795F7959F5FC9F7880F37
:10196000911D9695879597F90895E1E0660F771F89
:10197000881FBB1F621773078407BA0720F0621B1A
:10198000730B840BBA0BEE1F88F7E0950895E8946B
:1019900009C097FB3EF490958095709561957F4FB7
:1019A0008F4F9F4F9923A9F0F92F96E9BB27939565
:1019B000F695879577956795B795F111F8CFFAF475
:1019C000BB0F11F460FF1BC06F5F7F4F8F4F9F4FA6
:1019D00016C0882311F096E911C0772321F09EE804
:1019E000872F762F05C0662371F096E8862F70E06A
:1019F00060E02AF09A95660F771F881FDAF7880F44
:101A00009695879597F9089597F99F6780E870E014
:101A100060E008959FEF80EC089500240A94161664
:101A2000170618060906089500240A9412161306CC
:101A3000140605060895092E0394000C11F488235A
:101A400052F0BB0F40F4BF2B11F460FF04C06F5F76
:101A50007F4F8F4F9F4F089557FD9058440F551F4C
:101A600059F05F3F71F04795880F97FB991F61F020
:101A70009F3F79F087950895121613061406551F97
:101A8000F2CF4695F1DF08C0161617061806991F03
:101A9000F1CF86957105610508940895E894BB27F8
:101AA00066277727CB0197F9089516F00C94120E4C
:101AB0000C940A0D68940C94040D0E94340DA8F344
:101AC0009923C1F3AEF3DF93CF931F930F93FF924C
:101AD000C92FDD2788232AF02197660F771F881FDB
:101AE000DAF720E030E040E85FEB9FE3883920F050
:101AF000803E38F021968F770E94E90BE4EEF0E00B
:101B000004C00E94E90BE1E1F1E00E94200E8B018C
:101B1000BE01EC01FB2E6F5771097595771F880B7D
:101B2000990B0E94C90C28E132E741E35FE30E9470
:101B3000B80DAF2D9801AE01FF900F911F91CF917D
:101B4000DF910E94000C0C941B0D0E94B80D0C94A8
:101B50001B0D0E940D0D38F00E94140D20F09523EE
:101B600011F00C94040D0C940A0D11240C944F0DDB
:101B70000E942C0D70F3959FC1F3950F50E0551FF7
:101B8000629FF001729FBB27F00DB11D639FAA27D2
:101B9000F00DB11DAA1F649F6627B00DA11D661F21
:101BA000829F2227B00DA11D621F739FB00DA11D42
:101BB000621F839FA00D611D221F749F3327A00DFC
:101BC000611D231F849F600D211D822F762F6A2F98
:101BD00011249F5750409AF0F1F088234AF0EE0FFD
:101BE000FF1FBB1F661F771F881F91505040A9F72A
:101BF0009E3F510580F00C94040D0C944F0D5F3FF7
:101C0000E4F3983ED4F3869577956795B795F79565
:101C1000E7959F5FC1F7FE2B880F911D96958795DD
:101C200097F908959F3F31F0915020F4879577956B
:101C30006795B795880F911D9695879597F90895A3
:101C4000DF93CF931F930F93FF92EF92DF927B016D
:101C50008C01689406C0DA2EEF010E94B80DFE01D7
:101C6000E894A5912591359145915591A6F3EF0101
:101C70000E94000CFE019701A801DA9469F7DF9039
:101C8000EF90FF900F911F91CF91DF910895A1E206
:101C90001A2EAA1BBB1BFD010DC0AA1FBB1FEE1FE6
:101CA000FF1FA217B307E407F50720F0A21BB30B31
:101CB000E40BF50B661F771F881F991F1A9469F7AD
:101CC00060957095809590959B01AC01BD01CF0109
:101CD0000895EE0FFF1F881F8BBF0790F691E02D30
:101CE0001994F894FFCF64653334352223242526D4
:101CF0002728292A2B2C32000000007702E1010E50
:101D000002C4023F021D023102000000007E047383
:101D1000048F0449046C0459044A040D0A005265F6
:101D200063656976656420646174612E2E2E2E20B1
:101D3000004750494F3A2000203A20004750494F71
:101D4000206D617463686573206F757450696E737C
:101D5000206C697374004750494F204F4E00475024
:101D6000494F204F46460052656164207265717587
:101D7000657374656400204E6F20636F6D6D616ED6
:101D80006420666F723A20004750494F206D61749D
:101D90006368657320746865726D6973746F7250DF
:101DA000696E73206C697374004750494F206D61F0
:101DB000746368657320696E50696E73206C697313
:101DC00074004750494F206D6174636865732069E2
:101DD0006E74656C6C69627269746550696E7320AB
:101DE0006C697374004750494F20636D643A20005A
:101DF0005475726E207472616E73666F726D657267
:101E0000206F6E00496E74656C6C696272697465EE
:101E1000204F6E2000446973636F7665727920727B
:101E20006571756573742E2E2E2E20576972652E7E
:101E30007772697465206C656E6774683A20002E4D
:101E40002E2E202053656E74206770696F206C6998
:101E50007374004750494F206D6174636865732047
:101E60006F757450696E73206C6973743A20004703
:101E700050494F206D61746368657320696E5069C5
:101E80006E73206C6973743A20004750494F206D7F
:101E900061746368657320746865726D6973746FCB
:101EA0007250696E73206C6973743A2000526561D8
:101EB00064204750494F206D6174636865732069E1
:101EC0006E74656C6C69627269746550696E7320BA
:101ED0006C6973742000706F6F6C2D6932632D6DA7
:101EE0006567612E696E6F2076302E310052656114
:101EF000647921202D20536C6176652041646472E1
:101F0000657373203D20006F757450696E733D00DA
:101F1000696E50696E733D00696E74656C6C6962C0
:101F20007269746550696E733D002C20537461743E
:101F300075733D005472616E73666F726D657220C9
:041F40004F66660082
:10E000000D9489F10D94B2F10D94B2F10D94B2F129
:10E010000D94B2F10D94B2F10D94B2F10D94B2F1F0
:10E020000D94B2F10D94B2F10D94B2F10D94B2F1E0
:10E030000D94B2F10D94B2F10D94B2F10D94B2F1D0
:10E040000D94B2F10D94B2F10D94B2F10D94B2F1C0
:10E050000D94B2F10D94B2F10D94B2F10D94B2F1B0
:10E060000D94B2F10D94B2F10D94B2F10D94B2F1A0
:10E070000D94B2F10D94B2F10D94B2F10D94B2F190
:10E080000D94B2F10D94B2F10D94B2F10D94B2F180
:10E090000D94B2F10D94B2F10D94B2F10D94B2F170
:10E0A0000D94B2F10D94B2F10D94B2F10D94B2F160
:10E0B0000D94B2F10D94B2F10D94B2F10D94B2F150
:10E0C0000D94B2F10D94B2F10D94B2F10D94B2F140
:10E0D0000D94B2F10D94B2F10D94B2F10D94B2F130
:10E0E0000D94B2F141546D656761323536300041AF
:10E0F000726475696E6F206578706C6F72657220DE
:10E1000073746B3530305632206279204D4C530099
:10E11000426F6F746C6F616465723E004875683F52
:10E1200000436F6D70696C6564206F6E203D200048
:10E130004350552054797065202020203D20005FF9
:10E140005F4156525F415243485F5F3D2000415658
:10E1500052204C696243205665723D20004743437C
:10E160002056657273696F6E203D20004350552024
:10E1700049442020202020203D20004C6F7720663D
:10E18000757365202020203D20004869676820665F
:10E190007573652020203D200045787420667573D6
:10E1A00065202020203D20004C6F636B2066757336
:10E1B000652020203D20004D617220203720323024
:10E1C000313300312E362E3800342E332E350056A2
:10E1D00023202020414444522020206F7020636F70
:10E1E00064652020202020696E73747275637469E1
:10E1F0006F6E2061646472202020496E74657272B3
:10E20000757074006E6F20766563746F7200726A49
:10E210006D702020006A6D70200057686174207056
:10E220006F72743A00506F7274206E6F7420737541
:10E2300070706F72746564004D7573742062652030
:10E2400061206C6574746572002000577269747483
:10E25000696E672045450052656164696E672045B7
:10E26000450045452065727220636E743D00504F35
:10E27000525400303D5A65726F2061646472003FF1
:10E280003D43505520737461747300403D454550C3
:10E29000524F4D207465737400423D426C696E6B41
:10E2A000204C454400453D44756D70204545505215
:10E2B0004F4D00463D44756D7020464C415348001B
:10E2C000483D48656C70004C3D4C69737420492F83
:10E2D0004F20506F72747300513D51756974005234
:10E2E0003D44756D702052414D00563D73686F7707
:10E2F00020696E7465727275707420566563746FF0
:10E30000727300593D506F727420626C696E6B00BD
:10E310002A0011241FBECFEFD1E2DEBFCDBF01E046
:10E320000CBF12E0A0E0B2E0EEE1FDEF03E00BBFB6
:10E3300002C007900D92A030B107D9F712E0A0E01B
:10E34000B2E001C01D92AE30B107E1F70F9460F367
:10E350000D948DFE01E20EBF0FEF0DBF11241FBE05
:10E360000D9460F30D9400F020E030E040ED57E0B4
:10E3700005C0FA013197F1F72F5F3F4F2817390792
:10E38000C0F308959C01260F311DC901A0E0B0E043
:10E390002F5F3F4FABBFFC018791882361F08093D3
:10E3A000C6008091C00086FFFCCF8091C0008064D1
:10E3B0008093C000EACF08958DE08093C6008091DD
:10E3C000C00086FFFCCF8091C00080648093C000B5
:10E3D0008AE08093C6008091C00086FFFCCF8091C8
:10E3E000C00080648093C00008950F94C2F10F9420
:10E3F000DCF10895FC019081992359F09093C600B7
:10E400008091C00086FFFCCF8091C0008064809323
:10E41000C0003196992379F70895282F982F929567
:10E420009F70892F805D8A3308F0895F8093C600D2
:10E430008091C00086FFFCCF8091C00080648093F3
:10E44000C000822F8F70982F905D9A3308F0995FEB
:10E450009093C6008091C00086FFFCCF8091C000E1
:10E4600080648093C00008959C01FB01853691056E
:10E470001CF46330710594F0C90164E670E00F94F8
:10E480002EFE605D7F4F6093C6008091C00086FFC6
:10E49000FCCF8091C00080648093C0002B30310598
:10E4A00014F43297B4F0C90164E670E00F942EFEC4
:10E4B0006AE070E00F942EFE605D7F4F6093C600AF
:10E4C0008091C00086FFFCCF8091C0008064809363
:10E4D000C000C9016AE070E00F942EFEC0968093E0
:10E4E000C6008091C00086FFFCCF8091C000806490
:10E4F0008093C00008951F93182F8EE692EE60E07F
:10E500000F94C2F11093C6008091C00086FFFCCF2B
:10E510008091C00080648093C0000F94DCF11F9153
:10E5200008952F923F924F925F926F927F928F92B7
:10E530009F92AF92BF92CF92DF92EF92FF920F9392
:10E540001F93DF93CF93CDB7DEB762970FB6F894E2
:10E55000DEBF0FBECDBF382E622ECA01DB015C01CB
:10E560006D01772420E2222E2E010894411C511CBB
:10E570008BC081E0A81680E0B80681E0C80680E084
:10E58000D80628F0C601AA27BB270F940DF2BB2797
:10E59000AD2D9C2D8B2D0F940DF28A2D0F940DF225
:10E5A0002092C6008091C00086FFFCCF8091C00001
:10E5B00080648093C0009DE29093C6008091C0006B
:10E5C00086FFFCCF8091C00080648093C0002092C1
:10E5D000C6008091C00086FFFCCF8091C00080649F
:10E5E0008093C00019828601750188249924A1E0D6
:10E5F0003A1651F03A1620F0B2E03B1661F409C029
:10E600000BBFF701779007C0C7010F9477FE782EF4
:10E6100002C0F7017080872D0F940DF22092C60082
:10E620008091C00086FFFCCF8091C0008064809301
:10E63000C000872D8052F401EF70F0708F3520F408
:10E64000E40DF51D708204C0E40DF51D8EE280839B
:10E650000894E11CF11C011D111D0894811C911CE2
:10E6600090E18916910409F0C2CF80E190E0A0E02A
:10E67000B0E0A80EB91ECA1EDB1E198AC2010F9493
:10E68000FAF10F94DCF16A94662009F072CF629679
:10E690000FB6F894DEBF0FBECDBFCF91DF911F91B3
:10E6A0000F91FF90EF90DF90CF90BF90AF909F9031
:10E6B0008F907F906F905F904F903F902F90089534
:10E6C0002F923F924F925F926F927F928F929F9282
:10E6D000AF92BF92CF92DF92EF92FF920F931F9370
:10E6E000DF93CF93CDB7DEB7CD53D1400FB6F894BB
:10E6F000DEBF0FBECDBF01E20EBF0FEF0DBF94B75F
:10E70000F894A89514BE80916000886180936000A1
:10E7100010926000789493FF05C0E0910002F091A0
:10E7200001021995279A2F9A8091C00082608093E8
:10E73000C00080E18093C40088E18093C1000000A4
:10E74000EE24FF24870144E0A42EB12CCC24DD2448
:10E7500024C0C5010197F1F70894E11CF11C011DCB
:10E76000111D21E2E2162EE4F20620E0020720E06D
:10E77000120718F031E0C32ED12CC801B70127ECE5
:10E780003BE140E050E00F9441FE611571058105C9
:10E79000910519F485B1805885B98091C00087FD35
:10E7A00003C0C114D104A9F2A6014F5F5F4FC25E3E
:10E7B000DE4F59834883CE51D140C25EDE4F8881FF
:10E7C0009981CE51D140019711F00D9410FEC05D9A
:10E7D000DE4F19821882C053D14060E0C15DDE4F28
:10E7E0001882CF52D14088249924C35DDE4F19820C
:10E7F0001882CD52D140C05EDE4F188219821A8233
:10E800001B82C052D140CE5CDE4F188219821A8220
:10E810001B82C253D140EE24FF2487010BBFF701B6
:10E8200007911691C45CDE4F19830883CC53D14005
:10E830000D940BFEC25EDE4F28813981CE51D1404E
:10E840002130310509F52091C600C25EDE4F1982E4
:10E850001882CE51D14022C02F5F3F4F4F4F5F4FA4
:10E86000213082E138078AE7480780E0580780F0C6
:10E87000C45CDE4FE881F981CC53D140EF5FFF4F9C
:10E8800019F0EE27FF27099420E030E040E050E047
:10E890008091C00087FFE0CF2091C600C35DDE4FAE
:10E8A00048815981CD52D1404F5F5F4FC35DDE4FEC
:10E8B00059834883CD52D140213209F063C64A3092
:10E8C000510508F05FC60894811C911C53E0851621
:10E8D000910409F059C600E010E018C081E280936D
:10E8E000C6008091C00086FFFCCF8091C00080648C
:10E8F0008093C0002F5F3F4F2931310579F70F9486
:10E90000DCF10F5F1F4F0530110519F020E030E0FA
:10E91000E5CF10920A0210920B0210920C02109294
:10E920000D02109206021092070210920802109235
:10E930000902109202021092030210920402109235
:10E9400005028FEE90EE60E00F94F5F180E191EE1C
:10E9500060E00F94C2F18091C00087FFFCCF9091DE
:10E96000C600903608F09F759032B8F09093C600BC
:10E970008091C00086FFFCCF8091C00080648093AE
:10E98000C000A0E2A093C6008091C00086FFFCCF2B
:10E990008091C00080648093C000983409F4D7C18E
:10E9A0009934B8F4923409F459C1933458F490333B
:10E9B00019F1903308F4E3C59F33A1F1903409F0C5
:10E9C000DEC5BDC0953409F470C1963409F0D7C5D1
:10E9D00098C1923509F42BC2933538F49C3409F46C
:10E9E000F5C1913509F0CBC518C2963509F445C279
:10E9F000993509F0C4C567C483E792EE62E00F94CD
:10EA0000F5F110920602109207021092080210927D
:10EA1000090210920A0210920B0210920C0210923C
:10EA20000D0213C18FE792EE62E00F94F5F18FEEC5
:10EA300090EE60E00F94F5F181E291EE60E00F94CA
:10EA4000C2F187EB91EE60E00F94F5F180E391EE77
:10EA500060E00F94C2F184EE90EE60E00F94F5F167
:10EA60008FE391EE60E00F94C2F186E090E061E008
:10EA700070E00F9434F20F94DCF18DE591EE60E0DC
:10EA80000F94C2F189EC91EE60E00F94F5F18EE401
:10EA900091EE60E00F94C2F183EC91EE60E00F9490
:10EAA000F5F18CE691EE60E00F94C2F18EE10F94E7
:10EAB0000DF288E90F940DF281E00F940DF20F949E
:10EAC000DCF18BE791EE60E00F94C2F119E0E0E039
:10EAD000F0E010935700E4918E2F0F940DF20F94F5
:10EAE000DCF18AE891EE60E00F94C2F1E3E0F0E03F
:10EAF00010935700E4918E2F0F940DF20F94DCF1D8
:10EB000089E991EE60E00F94C2F1E2E0F0E0109349
:10EB10005700E4918E2F0F940DF20F94DCF188EAE8
:10EB200091EE60E00F94C2F1E1E0F0E01093570045
:10EB30001491812F0F940DF20F94DCF107CF8BE825
:10EB400092EE62E00F94F5F18BE492EE60E00F94A8
:10EB5000F5F10F94DCF100E010E019C0C8016F2D51
:10EB60000F947FFEFF2031F489E492EE60E00F9471
:10EB7000C2F10BC0F092C6008091C00086FFFCCFAE
:10EB80008091C00080648093C0000F5F1F4FC80158
:10EB900081519F41A0E0B0E0ABBFFC01F790BAE229
:10EBA000FB1621F0E2E000301E07C1F60F94DCF105
:10EBB0000F94DCF187E592EE60E00F94F5F10F948D
:10EBC000DCF1CC24DD2400E010E01EC0C8010F946D
:10EBD00077FEF82E882331F489E492EE60E00F94FA
:10EBE000C2F10BC08093C6008091C00086FFFCCFAD
:10EBF0008091C00080648093C000FE1419F00894D6
:10EC0000C11CD11C0F5F1F4FC80181519F41A0E063
:10EC1000B0E0ABBFFC01E790FAE2EF1621F022E092
:10EC20000030120799F60F94DCF10F94DCF182E6C4
:10EC300092EE60E00F94C2F1C60161E070E00F94C3
:10EC400034F20F94DCF10F94DCF110920202109276
:10EC50000302109204021092050278CE89E992EE26
:10EC600062E00F94F5F1279A2F9A16C02F9880E052
:10EC700090E0E0EDF7E03197F1F7019684369105E9
:10EC8000C1F72F9A80E090E0E0EDF7E03197F1F7DF
:10EC9000019684369105C1F78091C00087FFE6CFC9
:10ECA0008091C00087FFFCCF64C485EA92EE62E0E9
:10ECB0000F94F5F140910202509103026091040219
:10ECC0007091050281E020E10F9491F2809102029F
:10ECD00090910302A0910402B091050280509F4FD1
:10ECE000AF4FBF4F8093020290930302A0930402A0
:10ECF000B093050280509041A040B04008F426CE69
:10ED0000A4CF83EB92EE62E00F94F5F140910602FE
:10ED100050910702609108027091090280E020E1A1
:10ED20000F9491F28091060290910702A09108023F
:10ED3000B091090280509F4FAF4FBF4F80930602A2
:10ED400090930702A0930802B0930902FFCD80ECD4
:10ED500092EE62E00F94F5F183E792EE60E00F949B
:10ED6000F5F18FE792EE60E00F94F5F18BE892EE0B
:10ED700060E00F94F5F189E992EE60E00F94F5F10F
:10ED800085EA92EE60E00F94F5F183EB92EE60E09D
:10ED90000F94F5F180EC92EE60E00F94F5F187ECC2
:10EDA00092EE60E00F94F5F188ED92EE60E00F9442
:10EDB000F5F18FED92EE60E00F94F5F18AEE92EEB0
:10EDC00060E00F94F5F183E093EEBDCD87EC92EE19
:10EDD00062E00F94F5F181E40F947BF282E40F94EA
:10EDE0007BF283E40F947BF284E40F947BF285E45E
:10EDF0000F947BF286E40F947BF287E40F947BF20E
:10EE000088E40F947BF28AE40F947BF28BE40F94F6
:10EE10007BF28CE40F947BF299CD88ED92EE62E068
:10EE20000F94F5F1772473948824992409C48FED05
:10EE300092EE62E00F94F5F140910A0250910B02BC
:10EE400060910C0270910D0282E020E10F9491F22A
:10EE500080910A0290910B02A0910C02B0910D02D8
:10EE600080509F4FAF4FBF4F80930A0290930B0289
:10EE7000A0930C02B0930D0269CD8AEE92EE62E08F
:10EE80000F94F5F184EE90EE60E00F94F5F18FECC5
:10EE900091EE60E00F94F5F1662477244301CC5D98
:10EEA000DE4F19821882C452D140D401C301B695F5
:10EEB000A79597958795CA5DDE4F88839983AA8326
:10EEC000BB83C652D140CC5DDE4FA881B981C4520C
:10EED000D1401196CC5DDE4FB983A883C452D14096
:10EEE000CD0162E070E00F9434F2B0E2B093C6005E
:10EEF0008091C00086FFFCCF8091C0008064809329
:10EF0000C000EDE2E093C6008091C00086FFFCCF18
:10EF10008091C00080648093C000F0E2F093C6004E
:10EF20008091C00086FFFCCF8091C00080648093F8
:10EF3000C000CA5DDE4FE880F9800A811B81C6529D
:10EF4000D140BB27A12F902F8F2D0F940DF2CA5DBA
:10EF5000DE4F8881C652D1400F940DF2B0E2FB2EF5
:10EF6000F092C6008091C00086FFFCCF8091C00067
:10EF700080648093C0000DE30093C6008091C000C0
:10EF800086FFFCCF8091C00080648093C00010E2B7
:10EF90001093C6008091C00086FFFCCF8091C00016
:10EFA00080648093C0008BBEF3012791C65DDE4F65
:10EFB0002883CA52D140A22EBB24CC24DD2408943D
:10EFC000611C711C811C911C8BBEF3018791282E42
:10EFD0003324442455240894611C711C811C911C09
:10EFE0008BBEF3013791C55DDE4F3883CB52D140E4
:10EFF0000894611C711C811C911C8BBEF30147910C
:10F00000C45DDE4F4883CC52D140ADEFEA2EAFEF66
:10F01000FA2EAFEF0A2FAFEF1A2F6E0C7F1C801E57
:10F02000911E142D032DF22CEE24EA0CFB1C0C1D5A
:10F030001D1D0F940DF220E22093C6008091C000A8
:10F0400086FFFCCF8091C00080648093C000C65DC5
:10F05000DE4F8881CA52D1400F940DF230E23093D6
:10F06000C6008091C00086FFFCCF8091C000806404
:10F070008093C000C45DDE4F8881CC52D1400F9494
:10F080000DF240E24093C6008091C00086FFFCCFA5
:10F090008091C00080648093C000C55DDE4F888190
:10F0A000CB52D1400F940DF250E25093C6008091A4
:10F0B000C00086FFFCCF8091C00080648093C000B8
:10F0C0008FEFE8168FEFF80680E0080780E018075A
:10F0D00031F484E092EE60E00F94C2F1DFC0D80119
:10F0E000C7018070907CA070B0708050904CA040A0
:10F0F000B040D1F52FEF3FE340E050E0E222F322B1
:10F1000004231523CA5DDE4FA880B980CA80DB8046
:10F11000C652D140AE0CBF1CC01ED11EAA0CBB1CD7
:10F12000CC1CDD1C8EE092EE60E00F94C2F1BB2798
:10F13000A12F902F8F2D0F940DF28E2D0F940DF285
:10F1400030E23093C6008091C00086FFFCCF8091F2
:10F15000C00080648093C0004EE34093C60080915D
:10F16000C00086FFFCCF87C08EE09EEFA0E0B0E03D
:10F17000E822F9220A231B239CE0E91694E9F90608
:10F1800090E0090790E0190709F088C0C45DDE4FE0
:10F19000A881CC52D140EA2EFF2400E010E0102FCD
:10F1A0000F2DFE2CEE24C55DDE4FB881CB52D14031
:10F1B000EB0EF11C011D111DD601C501817090706F
:10F1C000A070B070DC0199278827E80EF91E0A1F8D
:10F1D0001B1F20EF30E040E050E0A222B322C42207
:10F1E000D52241E1AA0CBB1CCC1CDD1C4A95D1F7F1
:10F1F000EA0CFB1C0C1D1D1D81E090E0A0E0B0E0BE
:10F20000282239224A225B2235E1220C331C441C7D
:10F21000551C3A95D1F7E20CF31C041D151D57013E
:10F220006801AA0CBB1CCC1CDD1C85E192EE60E0E1
:10F230000F94C2F1C801AA27BB270F940DF2BB2778
:10F24000A12F902F8F2D0F940DF28E2D0F940DF274
:10F2500090E29093C6008091C00086FFFCCF809121
:10F26000C00080648093C000AEE3A093C60080918C
:10F27000C00086FFFCCF8091C00080648093C000F6
:10F28000C601AA27BB270F940DF2BB27AD2D9C2DDD
:10F290008B2D0F940DF28A2D0F940DF20F94DCF14B
:10F2A000CC5DDE4FE881F981C452D140F99709F471
:10F2B0004DCBF4E0EF2EF12C012D112D6E0C7F1CA7
:10F2C000801E911EF2CD83E093EE62E00F94F5F183
:10F2D0008AE192EE60E00F94C2F18091C00087FF56
:10F2E000FCCF1091C6001F751093C6008091C0001E
:10F2F00086FFFCCF8091C00080648093C0000F9493
:10F30000DCF1812F81548A3108F036C1163409F4BA
:10F3100095C0173490F4133409F44EC0143430F40B
:10F320001134F1F0123409F01DC130C0143409F465
:10F3300059C0153409F016C16BC01A3409F4C4C0A1
:10F340001B3438F4173409F48FC0183409F00AC19B
:10F35000A1C01B3409F4D2C01C3409F003C1E8C0B9
:10F360008FEF81B90DC082B1809582B980E090E0C5
:10F37000E0EDF7E03197F1F70196883C9105C1F790
:10F380008091C00087FFEFCF12B8EFC08FEF84B934
:10F390000DC085B1809585B980E090E0E0EDF7E0A3
:10F3A0003197F1F70196883C9105C1F78091C00033
:10F3B00087FFEFCF15B8D9C08FEF87B90DC088B1DF
:10F3C000809588B980E090E0E0EDF7E03197F1F7C3
:10F3D0000196883C9105C1F78091C00087FFEFCF6F
:10F3E00018B8C3C08FEF8AB90DC08BB180958BB9A7
:10F3F00080E090E0E0EDF7E03197F1F70196883C8E
:10F400009105C1F78091C00087FFEFCF1BB8ADC059
:10F410008FEF8DB90DC08EB180958EB980E090E0F0
:10F42000E0EDF7E03197F1F70196883C9105C1F7DF
:10F430008091C00087FFEFCF1EB897C08FEF80BBD1
:10F440000DC081B3809581BB80E090E0E0EDF7E0F6
:10F450003197F1F70196883C9105C1F78091C00082
:10F4600087FFEFCF11BA81C08FEF83BB0DC084B38C
:10F47000809584BB80E090E0E0EDF7E03197F1F714
:10F480000196883C9105C1F78091C00087FFEFCFBE
:10F4900014BA6BC08FEF809301010FC080910201FD
:10F4A00080958093020180E090E0E0EDF7E03197F5
:10F4B000F1F70196883C9105C1F78091C00087FF64
:10F4C000EDCF1092020151C08FEF809304010FC065
:10F4D0008091050180958093050180E090E0E0ED4A
:10F4E000F7E03197F1F70196883C9105C1F78091DB
:10F4F000C00087FFEDCF1092050137C08FEF8093DA
:10F5000007010FC08091080180958093080180E079
:10F5100090E0E0EDF7E03197F1F70196883C910536
:10F52000C1F78091C00087FFEDCF109208011DC088
:10F530008FEF80930A010FC080910B01809580931B
:10F540000B0180E090E0E0EDF7E03197F1F70196F4
:10F55000883C9105C1F78091C00087FFEDCF1092E4
:10F560000B0103C085E292EEEEC98091C00087FFD7
:10F57000FCCF8091C600EAC988E392EEE4C98CE131
:10F5800091EEE1C988249924933011F1943028F444
:10F59000913089F09230B8F408C0953061F195301F
:10F5A000F0F0963009F048C043C02B3109F042C951
:10F5B00091E06BE13FC96227C15DDE4F2883CF52E6
:10F5C000D14092E037C9B22FA0E0622793E032C960
:10F5D000822F90E0A82BB92B622794E02BC92E3004
:10F5E00009F039C3622795E0C05DDE4F19821882A9
:10F5F000C053D1401FC9E1E0F0E0EC0FFD1FC05D3A
:10F60000DE4F08811981C053D140E00FF11F2083E4
:10F610000F5F1F4FC05DDE4F19830883C053D14079
:10F6200062270A171B0709F005C9D80196E002C92D
:10F63000261709F010C303C0973009F0FBC87724E0
:10F640009981933109F412C19431C8F4963009F4C8
:10F65000D8C0973050F4923009F406C1933009F4C1
:10F660006DC0913009F059C253C0913109F477C08F
:10F67000923108F0BBC0903109F04FC2F5C098310B
:10F6800009F487C0993150F4953109F4EFC09531F0
:10F6900008F4C6C1963109F040C2C2C19A3109F4DA
:10F6A0006CC09A3108F491C09B3109F45BC09D3164
:10F6B00009F033C29D81903359F48F81882311F46E
:10F6C0009EE11CC0813011F091E018C098E916C08D
:10F6D000892F807591F0903539F4E0E0F0E089E011
:10F6E0008093570094910AC0983539F4E3E0F0E034
:10F6F00089E080935700949101C090E01A821B82A8
:10F700008D818C831D829E831F8227E030E009C299
:10F710001A8288E08B8381E48C8386E58D8382E581
:10F720008E8389E48F8383E5888780E589878FE5E9
:10F730008A8782E38B872BE030E0F3C18A818139AD
:10F7400041F0823941F0803911F48FE005C080E04A
:10F7500003C082E001C08AE01A828B8344C0772410
:10F76000739482C08D81882311F48EE12CC0813086
:10F7700011F081E028C088E926C01A82E1E0F0E0BB
:10F7800089E08093570084918B831C8224E030E0D1
:10F79000C8C18B81803589F48C81883039F4E2E0EE
:10F7A000F0E089E08093570084910DC0E0E0F0E044
:10F7B00089E080935700849106C0E3E0F0E089E09F
:10F7C0008093570084911A82DFCF8D81836C99E0FA
:10F7D000E1E0F0E0082E90935700E89507B600FCB2
:10F7E000FDCF1A821B8223E030E09BC180EC8A832C
:10F7F000CE5CDE4F188219821A821B82C253D1401E
:10F800008EC18A8190E0A0E0B0E0582F44273327D2
:10F8100022278B8190E0A0E0B0E0DC0199278827C7
:10F82000282B392B4A2B5B2B8D8190E0A0E0B0E098
:10F83000282B392B4A2B5B2B8C8190E0A0E0B0E089
:10F84000BA2FA92F982F8827282B392B4A2B5B2BCF
:10F85000220F331F441F551FC05EDE4F288339839C
:10F860004A835B83C052D1401A8259C13A81C95C34
:10F87000DE4F3883C753D140CA5CDE4F1882C6536F
:10F88000D1408B81C82EDD24CA5CDE4F488159816E
:10F89000C653D140C42AD52A933109F082C0CE5C28
:10F8A000DE4F88819981AA81BB81C253D1408050AB
:10F8B000904CA340B04030F583E0CE5CDE4FE88052
:10F8C000F9800A811B81C253D140F70100935B008C
:10F8D00080935700E89507B600FCFDCFCE5CDE4F65
:10F8E000088119812A813B81C253D14000501F4FAA
:10F8F0002F4F3F4FCE5CDE4F088319832A833B8313
:10F90000C253D140C05EDE4F488159816A817B81FC
:10F91000C052D140DE011B9631E08C9111962C91A2
:10F9200011971296C75CDE4F2883C953D140C85C3B
:10F93000DE4F1882C853D14090E0C85CDE4FE881AA
:10F94000F981C853D1408E2B9F2B0C01FA01609393
:10F950005B0030935700E89511244E5F5F4F6F4F67
:10F960007F4F0EEFE02E0FEFF02ECE0CDF1CC114F8
:10F97000D10499F685E0C05EDE4F088119812A81A5
:10F980003B81C052D140F80120935B008093570027
:10F99000E89507B600FCFDCF81E180935700E8951C
:10F9A00035C0C05EDE4F88819981AA81BB81C0527B
:10F9B000D140B695A795979587957C018601ABE0D8
:10F9C000AA2EB12CAC0EBD1E0BC0D5016D915D01F0
:10F9D000C7010F947FFE0894E11CF11C01501040F8
:10F9E0000115110591F7A60160E070E0440F551F65
:10F9F000661F771FC05EDE4FE880F9800A811B8199
:10FA0000C052D1404E0D5F1D601F711F1A82C05E33
:10FA1000DE4F488359836A837B83C052D1407FC0C5
:10FA2000FA80C55CDE4FF882CB53D140C65CDE4F16
:10FA30001882CA53D1408B81C82EDD24C65CDE4FAC
:10FA400008811981CA53D140C02AD12A1A828981DA
:10FA5000BE016D5F7F4F843121F59601C05EDE4FA0
:10FA6000E880F9800A811B81C052D1400BBFF701A9
:10FA700087919691DB018C9311969C936E5F7F4FDB
:10FA8000D801C7010296A11DB11DC05EDE4F88835B
:10FA90009983AA83BB83C052D14022503040F1F6F3
:10FAA00036C0C05EDE4F288139814A815B81C052F9
:10FAB000D1400894C108D108760100E010E0089414
:10FAC000C11CD11C0894E11CF11C011D111DE20E8A
:10FAD000F31E041F151F21BDBB27A52F942F832FB5
:10FAE00082BD2F5F3F4F4F4F5F4FF89A80B5DB01CC
:10FAF0008D93BD012E153F054007510761F7C05E8C
:10FB0000DE4F288339834A835B83C052D1409601FC
:10FB10002D5F3F4FFB01108204C080EC8A8322E0FE
:10FB200030E08BE18093C6008091C00086FFFCCF5F
:10FB30008091C00080648093C000C15DDE4FF88179
:10FB4000CF52D140F093C6008091C00086FFFCCF19
:10FB50008091C00080648093C000432F3093C60022
:10FB60008091C00086FFFCCF8091C00080648093AC
:10FB7000C000922F2093C6008091C00086FFFCCF6A
:10FB80008091C00080648093C0008EE08093C600A6
:10FB90008091C00086FFFCCF8091C000806480937C
:10FBA000C00065E1C15DDE4FE880CF52D1406E25D7
:10FBB00069276427FE01319610C090819093C6009A
:10FBC0008091C00086FFFCCF31968091C000806498
:10FBD0008093C0006927215030402115310569F715
:10FBE0006093C6008091C00086FFFCCF8091C0006A
:10FBF00080648093C00085B1805885B9772081F4F6
:10FC0000C15DDE4F0881CF52D1400F5FC15DDE4F35
:10FC10000883CF52D14090E0A0E0B0E00D941AF4F8
:10FC200027982F9880E090E020ED37E0F901319798
:10FC3000F1F7019684369105C9F700008091C00064
:10FC40008D7F8093C00081E180935700E895EE2777
:10FC5000FF270994FFCF90E00D941AF497FB092E2B
:10FC600007260AD077FD04D02ED006D000201AF443
:10FC7000709561957F4F0895F6F7909581959F4F08
:10FC80000895A1E21A2EAA1BBB1BFD010DC0AA1FDD
:10FC9000BB1FEE1FFF1FA217B307E407F50720F0F5
:10FCA000A21BB30BE40BF50B661F771F881F991F70
:10FCB0001A9469F760957095809590959B01AC01B9
:10FCC000BD01CF010895AA1BBB1B51E107C0AA1FAC
:10FCD000BB1FA617B70710F0A61BB70B881F991FED
:10FCE0005A95A9F780959095BC01CD010895F99991
:10FCF000FECF92BD81BDF89A992780B50895262F31
:10FD0000F999FECF1FBA92BD81BD20BD0FB6F89400
:0EFD1000FA9AF99A0FBE01960895F894FFCF63
:00000001FF
